:100000000C942A000C9447000C9447000C94470071
:100010000C9447000C9447000C9447000C94470044
:100020000C9447000C9447000C9447000C94470034
:100030000C9447000C9447000C9447000C94470024
:100040000C9447000C9447000C9447000C94470014
:100050000C94470011241FBECFE5D8E0DEBFCDBF12
:1000600010E0A0E6B0E0E8E7F7E002C005900D92EE
:10007000A236B107D9F720E0A2E6B0E001C01D9298
:10008000A237B207E1F70E9491020C94BA030C94D4
:100090000000672B09F09FC0009711F4D8980895CD
:1000A0008130910511F4D99808958230910511F4A9
:1000B000DA9808958330910511F4DB98089584301F
:1000C000910511F4DC9808958530910511F4DD98BF
:1000D00008958630910511F4DE98089587309105D2
:1000E00011F4DF9808958A30910511F4C0980895AD
:1000F0008B30910511F4C19808958C30910511F45D
:10010000C29808958D30910511F4C39808958E30EA
:10011000910511F4C49808958F30910511F4C59894
:1001200008958031910511F4C698089581319105A3
:1001300011F4C79808958431910511F4A898089591
:100140008531910511F4A99808958631910511F42E
:10015000AA9808958731910511F4AB9808958831D4
:10016000910511F4AC9808958931910511F4AD9879
:1001700008958A31910511F4AE9808958B31910557
:1001800011F4AF9808958E31910511F49098089567
:100190008F31910511F4919808958032910511F4F1
:1001A000929808958132910511F4939808958232BE
:1001B000910511F4949808958332910511F495985E
:1001C00008958432910511F496980895859709F061
:1001D0009FC097980895009711F4D89A0895813098
:1001E000910511F4D99A08958230910511F4DA9AA3
:1001F00008958330910511F4DB9A089584309105B8
:1002000011F4DC9A08958530910511F4DD9A089572
:100210008630910511F4DE9A08958730910511F426
:10022000DF9A08958A30910511F4C09A08958B30B1
:10023000910511F4C19A08958C30910511F4C29A78
:1002400008958D30910511F4C39A08958E3091056B
:1002500011F4C49A08958F30910511F4C59A089548
:100260008031910511F4C69A08958131910511F4F8
:10027000C79A08958431910511F4A89A089585319B
:10028000910511F4A99A08958631910511F4AA9A5D
:1002900008958731910511F4AB9A0895883191053D
:1002A00011F4AC9A08958931910511F4AD9A08952D
:1002B0008A31910511F4AE9A08958B31910511F4AC
:1002C000AF9A08958E31910511F4909A08958F3167
:1002D000910511F4919A08958032910511F4929A42
:1002E00008958132910511F4939A0895823291050F
:1002F00011F4949A08958332910511F4959A089512
:100300008432910511F4969A0895859709F4979A85
:100310000895CF93C82F80FF07C061E070E082E2AC
:1003200090E00E94490006C060E070E082E290E048
:100330000E944900C1FF07C061E070E083E290E0E5
:100340000E94490006C060E070E083E290E00E94F5
:100350004900C2FF07C061E070E084E290E00E94C3
:10036000490006C060E070E084E290E00E9449002D
:10037000C3FF07C061E070E085E290E00E944900A1
:1003800006C060E070E085E290E00E944900CF91F5
:100390000895CF93C82F60E070E085E190E00E945F
:1003A00049008C2F0E94890161E070E084E190E0B7
:1003B0000E94490089EF90E00197F1F700C000002A
:1003C00060E070E084E190E00E94490089EF90E0F5
:1003D0000197F1F700C00000CF910895CF93C62F89
:1003E000813059F480E8860F82958F700E94C90190
:1003F0008C2F8F700E94C9010CC0823051F480ECA8
:10040000860F82958F700E94C9018C2F8F700E9479
:10041000C901CF91089580E00E94890187E893E1A6
:100420000197F1F700C0000083E00E94C90181EE4E
:1004300094E00197F1F700C0000083E00E94C90139
:100440008DEB9AE00197F1F700C0000083E00E9475
:10045000C90182E00E94C90182E00E94C90188E0CE
:100460000E94C90180E00E94C9018CE00E94C9017C
:1004700080E00E94C90186E00E94C9010895CF93DF
:10048000C82F61E070E085E190E00E9449008C2F68
:1004900082958F700E94890161E070E084E190E0B4
:1004A0000E94490089EF90E00197F1F700C0000039
:1004B00060E070E084E190E00E94490089EF90E004
:1004C0000197F1F700C000008C2F8F700E94890106
:1004D00061E070E084E190E00E94490089EF90E0E3
:1004E0000197F1F700C0000060E070E084E190E067
:1004F0000E94490089EF90E00197F1F700C00000E9
:10050000CF910895CF93DF93EC018881882331F058
:1005100021960E943F0289918111FBCFDF91CF91FB
:100520000895CF93DF93CDB7DEB728970FB6F89431
:10053000DEBF0FBECDBF84B7806884BF84B780683C
:1005400084BF8FEF8ABB17BA83E084BB80EF81BB87
:10055000E2E6F0E080E081938F5F8031E1F78FE0A9
:10056000809369000E940B0261E081E00E94EE012D
:10057000C12CD12C02E610E061E081E00E94EE0186
:1005800036B3E0B323B322FBEE24E0F8F12CA32F23
:10059000B0E0B595A795B595A795B595A795B595EF
:1005A000A795AE59BF4F8C9140E1849FC0011124A3
:1005B000EF70F0E0EE59FF4F90819F70892B8BBB5D
:1005C000CD28A9F481E0E816F10489F423FF0FC0D7
:1005D0003F70E32FF0E0EE59FF4F30E0359527955F
:1005E0003595279535952795359527952083F801DD
:1005F00080814AE0BE016F5F7F4F90E00E948503DB
:10060000CE0101960E94820280E690E00E94820262
:10061000F80181814AE0BE016F5F7F4F90E00E9448
:100620008503CE0101960E94820280E690E00E943E
:100630008202F80182814AE0BE016F5F7F4F90E045
:100640000E948503CE0101960E94820280E690E01E
:100650000E948202F80183814AE0BE016F5F7F4FF2
:1006600090E00E948503CE0101960E94820280E6FE
:1006700090E00E94820261E082E00E94EE01F801B7
:1006800084814AE0BE016F5F7F4F90E00E94850346
:10069000CE0101960E94820280E690E00E948202D2
:1006A000F80185814AE0BE016F5F7F4F90E00E94B4
:1006B0008503CE0101960E94820280E690E00E94AE
:1006C0008202F80186814AE0BE016F5F7F4F90E0B1
:1006D0000E948503CE0101960E94820280E690E08E
:1006E0000E948202F80187814AE0BE016F5F7F4F5E
:1006F00090E00E948503CE0101960E94820280E66E
:1007000090E00E948202670137CFBB274A3031F464
:10071000992322F4BDE2909581959F4F0C9491030B
:10072000BB27FB015527AA27880F991FAA1FA417CB
:1007300010F0A41B83955051B9F7A05DAA3308F0BF
:10074000A95DA193009779F7B111B1931192CB01F3
:100750000C94AA03DC01FC01672F71917723E1F768
:10076000329704C07C916D9370836291AE17BF077E
:08077000C8F30895F894FFCFCF
:0207780020005F
:00000001FF
