:100000000C9431000C943B000C943B000C943B008E
:100010000C943B000C943B000C943B000C943B0074
:100020000C943B000C943B000C943B000C943B0064
:100030000C943B000C943B000C943B000C943B0054
:100040000C943B000C943B000C943B000C943B0044
:100050000C943B00470049004B004D004F005200FC
:10006000570011241FBECFE5D8E0DEBFCDBF0E94F0
:1000700063000C94B5000C940000962F50E04730BC
:100080005105F8F4FA01E65DFF4F0C94AF00890FBB
:100090000895891B0895892B089589230895892B34
:1000A0008095089501C0880F9A95EAF70895282F42
:1000B00030E0A90102C0559547959A95E2F7CA012B
:1000C000089580E00895CF93DF93CDB7DEB72897EA
:1000D0000FB6F894DEBF0FBECDBF19821A821E8202
:1000E0001F82188680E884BF84BF1ABA14BA8FEFC3
:1000F00087BB11BA18BA12BA11E089B38B8383B3E4
:100100008C8380B38770898380B388708D8380B33C
:1001100080718E8349816C818B810E943D008F8329
:100120008F81811102C01A8301C01A829D818E8144
:100130002A8182958F708227969596959695892328
:1001400088878F818F7E8F8398852F8130E1939F61
:10015000C0011124822B8F838F8188BBCECFEE0FFD
:0E016000FF1F0590F491E02D0994F894FFCF55
:00000001FF
