:100000000C942A000C943F000C943F000C943F0089
:100010000C943F000C943F000C943F000C943F0064
:100020000C943F000C943F000C943F000C943F0054
:100030000C943F000C943F000C943F000C943F0044
:100040000C943F000C943F000C943F000C943F0034
:100050000C943F0011241FBECFE5D8E0DEBFCDBF1A
:1000600012E0A0E6B0E0E8EBF0E002C005900D92EF
:10007000A036B107D9F70E9441000C945A000C94A5
:1000800000001ABA8FEF87BB84BB81BB80E884BFB6
:1000900084BFE9B3F0E0EE0FFF1FE05AFF4F80810D
:1000A00088BB818185BB83EC99E00197F1F700C0A3
:0800B0000000EFCFF894FFCF30
:1000B8002370357031A234A1527423F32282416433
:1000C80021247032000041D422C4410253912032CD
:1000D800000010F7716730F7716715B1717710C7B5
:1000E800361362C360F77167717730C733E371778E
:1000F80030C7703200001143136100000031000066
:1001080000000000000000000000000000000000E7
:1001180000000000000000000000000000000000D7
:1001280000000000000000000000000000000000C7
:1001380000000000000000000000000000000000B7
:1001480000000000000000000000000000000000A7
:100158000000000000000000000000000000000097
:100168000000000000000000000000000000000087
:100178000000000000000000000000000000000077
:100188000000000000000000000000000000000067
:100198000000000000000000000000000000000057
:1001A8000000000000000000000000000000000047
:1001B8000000000000000000000000000000000037
:1001C8000000000000000000000000000000000027
:1001D8000000000000000000000000000000000017
:1001E8000000000000000000000000000000000007
:1001F80000000000000000000000000000000000F7
:1002080000000000000000000000000000000000E6
:1002180000000000000000000000000000000000D6
:1002280000000000000000000000000000000000C6
:1002380000000000000000000000000000000000B6
:1002480000000000000000000000000000000000A6
:100258000000000000000000000000000000000096
:100268000000000000000000000000000000000086
:100278000000000000000000000000000000000076
:100288000000000000000000000000000000000066
:100298000000000000000000000000000000000056
:1002A8000000000000000000000000000000000046
:00000001FF
