:100000000C9431000C943B000C943B000C943B008E
:100010000C943B000C943B000C943B000C943B0074
:100020000C943B000C943B000C943B000C943B0064
:100030000C943B000C943B000C943B000C943B0054
:100040000C943B000C943B000C943B000C943B0044
:100050000C943B00470049004B004D004F005200FC
:10006000570011241FBECFE5D8E0DEBFCDBF0E94F0
:1000700063000C94B5000C940000962F50E04730BC
:100080005105F8F4FA01E65DFF4F0C94AF00890FBB
:100090000895891B0895892B089589230895892B34
:1000A0008095089501C0880F9A95EAF70895282F42
:1000B00030E0A90102C0559547959A95E2F7CA012B
:1000C000089580E00895CF93DF93CDB7DEB72897EA
:1000D0000FB6F894DEBF0FBECDBF18861F821B82FD
:1000E0001A82198280E884BF84BF1ABA14BA8FEFCB
:1000F00087BB11BA18BA12BA11E089B38E8383B3E1
:100100008D8380B38770888780B388708C8380B339
:1001100080718B8348856D818E810E943D008A832A
:100120008A81811102C01F8301C01F828C819B8143
:100130002F8192959F709227869586958695892323
:1001400089838A818F7E8A8389812A8130E1839F96
:10015000C0011124822B8A838A8188BBCECFEE0F07
:0E016000FF1F0590F491E02D0994F894FFCF55
:00000001FF
