:100000000C942A000C9434000C9434000C943400AA
:100010000C9434000C9434000C9434000C94340090
:100020000C9434000C9434000C9434000C94340080
:100030000C9434000C9434000C9434000C94340070
:100040000C9434000C9434000C9434000C94340060
:100050000C94340011241FBECFE5D8E0DEBFCDBF25
:100060000E9436000C9472000C940000CF93DF9332
:10007000CDB7DEB760970FB6F894DEBF0FBECDBF29
:100080001ABA8FE087BB8FEF81BB30E040E002C03F
:10009000422F382F96B3892F807F29B38823ACF065
:1000A00033239CF435FF0BC0342F3F70E1E0F0E0C8
:1000B000EC0FFD1FE30FF11D42954F704083E3EC01
:1000C000F9E03197F1F700C0000094FFE1CF922FE3
:1000D0009F70E1E0F0E0EC0FFD1FE90FF11D908152
:0800E00098BBD6CFF894FFCFC6
:00000001FF
