:100000000C943A000C9444000C9444000C9444006A
:100010000C9444000C9444000C9444000C94440050
:100020000C9444000C9444000C9444000C94440040
:100030000C9444000C9444000C9444000C94440030
:100040000C9444000C9444000C9444000C94440020
:100050000C944400060109010C010F011201150165
:1000600018011B011E012101240127012A012D0174
:100070003001330111241FBECFE5D8E0DEBFCDBF74
:100080000E9438010C944B010C940000CF92DF9237
:10009000EF92FF920F931F93CF93DF939498D2B276
:1000A00080FBEE24E0F8F12CEE0CFF1CEE0CFF1CA4
:1000B000EE0CFF1CEE0CFF1CED28E2BA9598F2B294
:1000C0006C01D694C7940C2D017010E0000F111F25
:1000D00002951295107F1027007F10270F2902BB71
:1000E000969812B37C01F694E794F694E7942E2D3B
:1000F0002170C22F20E0D22F0024D695C7950794F7
:10010000D695C7950794DC2FC02DC12BC2BB9798FD
:10011000C2B38C0116950795169507951695079508
:10012000A02FA170B0E0B695BA2FAA27B795A795D2
:10013000AC2BA2BBD898ABB384FBBB27B0F9AB2BDD
:10014000ABBBD998ABB3EC01D695C795D295C29508
:10015000CF70CD27DF70CD27EC2FE170F0E0EE0FF0
:10016000FF1FEA2BEBBBDA98EBB3DC010024AA0FEC
:10017000BB1F001CAA0FBB1F001CAB2FB02D6A2F8A
:10018000617070E0660F771F660F771F6E2B6BBB79
:10019000DB986BB3FC01EE0FEF2FEE1FFF0BF19519
:1001A0004E2F417050E0440F551F440F551F440F10
:1001B000551F462B4BBBDC988BB3292F217030E0A9
:1001C00022953295307F3227207F3227282B2BBB78
:1001D0008BB38F718BBB2BB3892F86958295880F3C
:1001E000807E822B8BBBDF91CF911F910F91FF906F
:1001F000EF90DF90CF90089580B3E82FEF708E2FAF
:1002000090E0FC01E65DFF4F0C94450186E096E02E
:100210002CC085E096E029C080E093E026C080E80D
:100220009EE023C080E493E020C086E092E01DC001
:1002300085E092E01AC085E090E017C085E09AE082
:1002400014C086E094E011C086E090E00EC085E026
:1002500094E00BC085E390E008C085E09CE005C019
:1002600086E098E002C089E090E00E944600089590
:1002700080EF81BB8FEF8ABB0E94FC0083EC99E08A
:100280000197F1F700C00000F7CFEE0FFF1F0590B8
:0A029000F491E02D0994F894FFCFDB
:00000001FF
